:100000000C945C000C946E000C946E000C946E00CA
:100010000C946E000C946E000C946E000C946E00A8
:100020000C946E000C946E000C946E000C946E0098
:100030000C946E000C946E000C946E000C946E0088
:100040000C947A010C946E000C946E000C946E006B
:100050000C946E000C946E000C946E000C946E0068
:100060000C946E000C946E00000000080002010069
:100070000003040700000000000000000000000072
:10008000250028002B0000000000240027002A0083
:10009000040404040404040402020202020203032E
:1000A0000303030301020408102040800102040836
:1000B000102001020408102011241FBECFEFD8E049
:1000C000DEBFCDBF21E0A0E0B1E001C01D92A930AC
:1000D000B207E1F70E94C4010C945E020C94000088
:1000E00090E0FC01EC55FF4F249180579F4FFC019D
:1000F0008491882399F090E0880F991FFC01EA57BA
:10010000FF4FA591B491FC01E458FF4F8591949164
:100110008FB7F894EC91E22BEC938FBF089590E0A9
:10012000FC01E859FF4F2491FC01EC55FF4F34913D
:10013000FC01E057FF4FE491EE23C9F0222339F090
:10014000233001F1A8F4213019F1223029F1F0E037
:10015000EE0FFF1FE458FF4FA591B4918FB7F894AD
:10016000EC91611126C030953E233C938FBF0895DA
:100170002730A9F02830C9F0243049F78091800059
:100180008F7D03C0809180008F7780938000DFCFC8
:1001900084B58F7784BDDBCF84B58F7DFBCF809115
:1001A000B0008F778093B000D2CF8091B0008F7D68
:1001B000F9CF3E2BDACFE82FF0E0E859FF4FE4917A
:1001C000E33029F150F4E130C1F0E230D9F0603889
:1001D0007105BCF560E00C948F00E73011F1E83058
:1001E00041F1E430A1F7809180008062809380002B
:1001F00070938B0060938A00089584B5806884BDF5
:1002000067BD089584B5806284BD68BD08958091FE
:1002100080008068809380007093890060938800DC
:1002200008958091B00080688093B0006093B3001F
:1002300008958091B00080628093B0006093B40014
:10024000089561E0C8CF3FB7F8948091050190917F
:100250000601A0910701B091080126B5A89B05C031
:100260002F3F19F00196A11DB11D3FBFBA2FA92F35
:10027000982F8827BC01CD01620F711D811D911D32
:1002800042E0660F771F881F991F4A95D1F708959E
:100290008F929F92AF92BF92CF92DF92EF92FF9296
:1002A0004B015C010E9423016B017C010E94230130
:1002B0006C197D098E099F09683E7340810591057F
:1002C000A8F321E0821A9108A108B10888EEC80EAF
:1002D00083E0D81EE11CF11C81149104A104B10437
:1002E00029F7FF90EF90DF90CF90BF90AF909F9055
:1002F0008F9008951F920F920FB60F9211242F9393
:100300003F938F939F93AF93BF93809101019091FF
:100310000201A0910301B09104013091000123E09A
:10032000230F2D3758F50196A11DB11D2093000113
:100330008093010190930201A0930301B093040103
:100340008091050190910601A0910701B0910801EB
:100350000196A11DB11D8093050190930601A09304
:100360000701B0930801BF91AF919F918F913F9189
:100370002F910F900FBE0F901F90189526E8230F16
:100380000296A11DB11DD2CF789484B5826084BD40
:1003900084B5816084BD85B5826085BD85B5816089
:1003A00085BD80916E00816080936E001092810007
:1003B00080918100826080938100809181008160C2
:1003C0008093810080918000816080938000809183
:1003D000B10084608093B1008091B000816080930F
:1003E000B00080917A00846080937A0080917A00D6
:1003F000826080937A0080917A00816080937A0095
:1004000080917A00806880937A001092C1008DE01C
:100410000E9470008CE00E9470008BE00E947000CF
:10042000C0E0D0E061E08DE00E948F0060E08CE0F1
:100430000E948F008BE00E94700064E670E08BE009
:100440000E94DB0068EE73E080E090E00E944801CB
:100450008BE00E94700066E970E08BE00E94DB0098
:1004600068EE73E080E090E00E9448018BE00E941B
:10047000700068EC70E08BE00E94DB0068EE73E0D7
:1004800080E090E00E9448018BE00E9470006AEFDB
:1004900070E08BE00E94DB0068EE73E080E090E0AB
:1004A0000E94480160ED77E080E090E00E94480102
:1004B000209709F4B7CF0E940000B4CFF894FFCF83
:00000001FF
