:020000040000FA
:100000000C9462000C948A000C948A000C948A0070
:100010000C948A000C948A000C948A000C948A0038
:100020000C948A000C948A000C948A000C948A0028
:100030000C948A000C948A000C948A000C948A0018
:100040000C94ED030C948A000C94BB030C94950360
:100050000C948A000C948A000C948A000C948A00F8
:100060000C948A000C948A000000000024002700F1
:100070002A0000000000250028002B0000000000DE
:1000800023002600290004040404040404040202DA
:100090000202020203030303030301020408102007
:1000A0004080010204081020010204081020000012
:1000B0000008000201000003040700000000000027
:1000C0000000C20511241FBECFEFD8E0DEBFCDBFB8
:1000D00011E0A0E0B1E0EAEAF0E102C005900D9283
:1000E000A437B107D9F722E0A4E7B1E001C01D921F
:1000F000A732B207E1F710E0C2E6D0E004C02197D2
:10010000FE010E944D08C136D107C9F70E9437048D
:100110000C9453080C940000AF92BF92CF92DF92E0
:10012000EF92FF920F931F93CF93DF936C017B01AC
:100130008B01040F151FEB015E01AE18BF08C0173D
:10014000D10759F06991D601ED91FC910190F081B0
:10015000E02DC6010995892B79F7C501DF91CF9173
:100160001F910F91FF90EF90DF90CF90BF90AF90D5
:100170000895FC01538D448D252F30E0842F90E0AD
:10018000821B930B541710F0CF9608950197089592
:10019000FC01918D828D981761F0A28DAE0FBF2F5B
:1001A000B11D5D968C91928D9F5F9F73928F90E0B1
:1001B00008958FEF9FEF0895FC01918D828D981720
:1001C00031F0828DE80FF11D858D90E008958FEF5D
:1001D0009FEF0895FC01918D228D892F90E0805C26
:1001E0009F4F821B91098F73992708958AE891E0A8
:1001F0000E94EA0021E0892B09F420E0822F089573
:1002000080E090E0892B29F00E94F60081110C9487
:1002100000000895FC01A48DA80FB92FB11DA35AA9
:10022000BF4F2C91848D90E001968F739927848F16
:10023000A689B7892C93A089B1898C918370806439
:100240008C93938D848D981306C00288F389E02DDA
:1002500080818F7D80830895EF92FF920F931F938B
:10026000CF93DF93EC0181E0888F9B8D8C8D981369
:100270001AC0E889F989808185FF15C09FB7F89475
:10028000EE89FF896083E889F989808183708064C1
:1002900080839FBF81E090E0DF91CF911F910F910C
:1002A000FF90EF900895F62E0B8D10E00F5F1F4F1B
:1002B0000F731127E02E8C8D8E110CC00FB607FC2A
:1002C000FACFE889F989808185FFF5CFCE010E94B8
:1002D0000A01F1CFEB8DEC0FFD2FF11DE35AFF4F1B
:1002E000F0829FB7F8940B8FEA89FB898081806246
:1002F000CFCFCF93DF93EC01888D8823B9F0AA8903
:10030000BB89E889F9898C9185FD03C0808186FDD0
:100310000DC00FB607FCF7CF8C9185FFF2CF80811F
:1003200085FFEDCFCE010E940A01E9CFDF91CF9189
:100330000895833081F028F4813099F08230A9F05B
:1003400008958730A9F08830C9F08430B1F48091E5
:1003500080008F7D03C0809180008F778093800024
:10036000089584B58F7784BD089584B58F7DFBCFC4
:100370008091B0008F778093B00008958091B00095
:100380008F7DF9CFCF93DF93EAEBF0E08491E6EA3B
:10039000F0E0D491E2E9F0E0C491CC23A1F0811126
:1003A0000E949901EC2FF0E0EE0FFF1FE458FF4F81
:1003B000A591B491EC91ED2381E090E009F480E007
:1003C000DF91CF91089580E090E0FACF1F93CF9313
:1003D000DF93EAEBF0E09491E6EAF0E0D491E2E911
:1003E000F0E0C491CC23B9F0182F992319F0892F8C
:1003F0000E949901EC2FF0E0EE0FFF1FEE58FF4F27
:10040000A591B4918FB7F894EC91111108C0D095D3
:10041000DE23DC938FBFDF91CF911F910895DE2BF8
:10042000F8CF3FB7F8948091790190917A01A0912B
:100430007B01B0917C0126B5A89B05C02F3F19F028
:100440000196A11DB11D3FBFBA2FA92F982F882754
:10045000BC01CD01620F711D811D911D42E0660F2F
:10046000771F881F991F4A95D1F708958F929F9201
:10047000AF92BF92CF92DF92EF92FF924B015C015D
:100480000E9411026B017C010E9411026C197D090E
:100490008E099F09683E734081059105A8F321E00C
:1004A000821A9108A108B10888EEC80E83E0D81E10
:1004B000E11CF11C81149104A104B10429F7FF90FF
:1004C000EF90DF90CF90BF90AF909F908F90089566
:1004D000FC0101900020E9F73197AF01481B590B4F
:1004E000BC018AE891E00C948C008F929F92AF92AD
:1004F000BF920F931F93CF93DF93CDB7DEB7A19732
:100500000FB6F894DEBF0FBECDBF19A2423008F47B
:100510004AE08E010F5D1F4F842E912CB12CA12C2F
:10052000A50194010E94EF05E62FB901CA01EA3046
:10053000F4F4E05DD801EE938D01232B242B252BC1
:1005400079F790E080E0109719F0CD010E946802E1
:10055000A1960FB6F894DEBF0FBECDBFDF91CF914D
:100560001F910F91BF90AF909F908F900895E95C7D
:10057000E1CF4F925F926F927F928F929F92AF9254
:10058000BF92CF92DF92EF92FF920F931F93CF9380
:100590006B017C01742EAC019B010E9448088823EA
:1005A00099F082E191E0CF911F910F91FF90EF9030
:1005B000DF90CF90BF90AF909F908F907F906F9083
:1005C0005F904F900C94680246015701E894B7F889
:1005D0002FEF3FEF4FE75FE7C501B4010E944808E6
:1005E00081110DC02FEF3FEF4FE75FE7C501B40169
:1005F0000E947E0618161CF486E191E0D4CF2FEFFE
:100600003FEF4FE75FE4C701B6010E94D607181617
:100610001CF48AE191E0C7CF2FEF3FEF4FE75FEC8B
:10062000C701B6010E947E0687FDF3CF20E030E0CF
:10063000A901C701B6010E947E0610E000E087FF15
:100640000AC06DE28AE891E00E942C018C01F7FA61
:10065000F094F7F8F094C0E060E070E080E09FE391
:100660007C1641F020E030E040E251E40E94830635
:10067000CF5FF6CFA70196010E9412062B013C0125
:100680000E94F5064B015C014AE00E9475027C0164
:10069000E00EF11ECC23C1F1C501B4010E94240774
:1006A0009B01AC01C301B2010E9411064B015C0128
:1006B0006EE28AE891E00E942C01E80EF91EC1501A
:1006C00018F120E030E040E251E4C501B4010E949D
:1006D000DB072B013C010E94F5064B01B12CA12C3C
:1006E0004AE0C501B4010E947502E80EF91EC50179
:1006F000B4010E9424079B01AC01C301B2010E9416
:1007000011064B015C01DBCFC701CF911F910F9107
:10071000FF90EF90DF90CF90BF90AF909F908F9021
:100720007F906F905F904F9008951F920F920FB639
:100730000F9211242F933F934F935F936F937F9367
:100740008F939F93AF93BF93EF93FF938AE891E0CA
:100750000E940A01FF91EF91BF91AF919F918F91FC
:100760007F916F915F914F913F912F910F900FBEAD
:100770000F901F9018951F920F920FB60F92112491
:100780002F938F939F93EF93FF93E0919A01F091B2
:100790009B018081E091A001F091A10182FD1BC02D
:1007A00090818091A3018F5F8F732091A4018217A4
:1007B00041F0E091A301F0E0E657FE4F958F809362
:1007C000A301FF91EF919F918F912F910F900FBEF9
:1007D0000F901F9018958081F4CF1F920F920FB643
:1007E0000F9211242F933F938F939F93AF93BF93B7
:1007F0008091750190917601A0917701B091780177
:100800003091740123E0230F2D3758F50196A11D77
:10081000B11D209374018093750190937601A0938C
:100820007701B09378018091790190917A01A0913C
:100830007B01B0917C010196A11DB11D80937901CE
:1008400090937A01A0937B01B0937C01BF91AF910B
:100850009F918F913F912F910F900FBE0F901F90FE
:10086000189526E8230F0296A11DB11DD2CF7894CA
:1008700084B5826084BD84B5816084BD85B58260A5
:1008800085BD85B5816085BD80916E008160809356
:100890006E001092810080918100826080938100BF
:1008A00080918100816080938100809180008160CF
:1008B000809380008091B10084608093B10080912A
:1008C000B00081608093B00080917A008460809352
:1008D0007A0080917A00826080937A0080917A0019
:1008E000816080937A0080917A00806880937A009A
:1008F0001092C100E0919A01F0919B0182E0808307
:10090000E0919601F09197011082E0919801F091A9
:1009100099018FEC80831092A201E0919E01F091E9
:100920009F0186E08083E0919C01F0919D01808190
:1009300080618083E0919C01F0919D0180818860BD
:100940008083E0919C01F0919D018081806880838B
:10095000E0919C01F0919D0180818F7D80838EE1EB
:1009600091E00E94680284E491E00E94680252E9EA
:10097000252E50E0352E6BE9662E712CCC24C394C5
:10098000D12CE0E0EE2EE0E0FE2E109285011092D8
:100990008601109287011092880110928901E6EA7F
:1009A000F0E02491F1018491882399F090E0880F80
:1009B000991FFC01E859FF4FA591B491FC01EE5835
:1009C000FF4F859194918FB7F8949C91292B2C938C
:1009D0008FBF80E00E94E60164E170E080E090E07B
:1009E0000E94360281E00E94E601C3010197F1F7FF
:1009F000E6EAF0E02491F10184918823C1F090E0CF
:100A0000880F991FFC01E859FF4FA591B491FC0193
:100A1000EE58FF4FC591D4913FB7F8949C91822F27
:100A2000809598239C939881892388833FBFC1E157
:100A3000D7E20E94C201892B09F03EC02197C9F775
:100A400087E491E00E94680260917D0170917E01CF
:100A500080917F019091800143E00E94B9028BE573
:100A600091E00E94680280E691E00E946802609135
:100A7000810170918201809183019091840142E013
:100A80000E94B9028FE691E00E94680284E491E03E
:100A90000E94680268EB7BE080E090E00E943602F2
:100AA000E114F10409F471CF0E94F600882309F4DF
:100AB0006CCF0E94000069CFC1E1D7E20E94C20161
:100AC000019719F42197D1F7BBCFC8E2D0E097E0A6
:100AD000592E412C01E117E20E94C201892B21F419
:100AE00001501109C9F7ACCF0E9411024B015C0102
:100AF00001E117E20E94C201019721F4015011099E
:100B0000C9F79ECF0E941102681979098A099B09C9
:100B1000693271058105910568F0E42DF0E0E35834
:100B2000FE4F80859601052C01C0220F0A94EAF73A
:100B3000822B8087511024C0439487E0582E219740
:100B400049F66091850170E090E080E00E94240702
:100B500060937D0170937E0180937F01909380016B
:100B60006091870170E090E080E00E94240760932C
:100B7000810170938201809383019093840160CFFF
:100B80005A94DDCFEAE8F1E01382128288EE93E016
:100B9000A0E0B0E084839583A683B78384E091E0EE
:100BA0009183808385EC90E09587848784EC90E046
:100BB0009787868780EC90E0918B808B81EC90E02A
:100BC000938B828B82EC90E0958B848B86EC90E00B
:100BD000978B868B118E128E138E148E0895A1E240
:100BE0001A2EAA1BBB1BFD010DC0AA1FBB1FEE1FA7
:100BF000FF1FA217B307E407F50720F0A21BB30BF2
:100C0000E40BF50B661F771F881F991F1A9469F76D
:100C100060957095809590959B01AC01BD01CF01C9
:100C200008955058BB27AA270E9429060C949C07B8
:100C30000E948E0738F00E94950720F039F49F3FFC
:100C400019F426F40C948B070EF4E095E7FB0C9452
:100C50008507E92F0E94AD0758F3BA17620773079B
:100C60008407950720F079F4A6F50C94CF070EF4CD
:100C7000E0950B2EBA2FA02D0B01B90190010C01AC
:100C8000CA01A0011124FF27591B99F0593F50F4C4
:100C9000503E68F11A16F040A22F232F342F44271C
:100CA000585FF3CF469537952795A795F040539514
:100CB000C9F77EF41F16BA0B620B730B840BBAF0E4
:100CC0009150A1F0FF0FBB1F661F771F881FC2F74F
:100CD0000EC0BA0F621F731F841F48F48795779563
:100CE0006795B795F7959E3F08F0B0CF9395880F1D
:100CF00008F09927EE0F9795879508950E94610750
:100D000008F481E008950E9497060C949C070E94C5
:100D1000950758F00E948E0740F029F45F3F29F0B4
:100D20000C94850751110C94D0070C948B070E94EA
:100D3000AD0768F39923B1F3552391F3951B550B38
:100D4000BB27AA2762177307840738F09F5F5F4F9E
:100D5000220F331F441FAA1FA9F335D00E2E3AF0DD
:100D6000E0E832D091505040E695001CCAF72BD0F5
:100D7000FE2F29D0660F771F881FBB1F2617370746
:100D80004807AB07B0E809F0BB0B802DBF01FF2778
:100D900093585F4F3AF09E3F510578F00C948507C9
:100DA0000C94D0075F3FE4F3983ED4F38695779593
:100DB0006795B795F7959F5FC9F7880F911D969531
:100DC000879597F90895E1E0660F771F881FBB1F8D
:100DD000621773078407BA0720F0621B730B840B3A
:100DE000BA0BEE1F88F7E09508950E94B50788F0CA
:100DF0009F5798F0B92F9927B751B0F0E1F0660FDF
:100E0000771F881F991F1AF0BA95C9F714C0B1301F
:100E100091F00E94CF07B1E008950C94CF07672F9F
:100E2000782F8827B85F39F0B93FCCF3869577954E
:100E30006795B395D9F73EF4909580957095619537
:100E40007F4F8F4F9F4F0895E89409C097FB3EF462
:100E500090958095709561957F4F8F4F9F4F992307
:100E6000A9F0F92F96E9BB279395F6958795779585
:100E70006795B795F111F8CFFAF4BB0F11F460FF45
:100E80001BC06F5F7F4F8F4F9F4F16C0882311F09D
:100E900096E911C0772321F09EE8872F762F05C0B1
:100EA000662371F096E8862F70E060E02AF09A954C
:100EB000660F771F881FDAF7880F9695879597F941
:100EC0000895990F0008550FAA0BE0E8FEEF1616DB
:100ED0001706E807F907C0F012161306E407F5072E
:100EE00098F0621B730B840B950B39F40A2661F0A2
:100EF000232B242B252B21F408950A2609F4A14045
:100F0000A6958FEF811D811D089597F99F6780E851
:100F100070E060E008959FEF80EC089500240A944B
:100F20001616170618060906089500240A941216C4
:100F30001306140605060895092E0394000C11F4F7
:100F4000882352F0BB0F40F4BF2B11F460FF04C0A4
:100F50006F5F7F4F8F4F9F4F089557FD9058440FFD
:100F6000551F59F05F3F71F04795880F97FB991F08
:100F700061F09F3F79F087950895121613061406C5
:100F8000551FF2CF4695F1DF08C016161706180652
:100F9000991FF1CF86957105610508940895E8942D
:100FA000BB2766277727CB0197F908950E94610731
:100FB00008F48FEF08950E94EE070C949C070E949E
:100FC0008E0738F00E94950720F0952311F00C94BD
:100FD00085070C948B0711240C94D0070E94AD0751
:100FE00070F3959FC1F3950F50E0551F629FF0017C
:100FF000729FBB27F00DB11D639FAA27F00DB11D95
:10100000AA1F649F6627B00DA11D661F829F22271D
:10101000B00DA11D621F739FB00DA11D621F839FA4
:10102000A00D611D221F749F3327A00D611D231F7A
:10103000849F600D211D822F762F6A2F11249F57C8
:1010400050409AF0F1F088234AF0EE0FFF1FBB1FCB
:10105000661F771F881F91505040A9F79E3F51058A
:1010600080F00C9485070C94D0075F3FE4F3983E22
:10107000D4F3869577956795B795F795E7959F5F34
:10108000C1F7FE2B880F911D9695879597F90895C6
:101090000E946107880B990B0895EE0FFF1F0590C2
:1010A000F491E02D0994F894FFCF000000002C018A
:1010B0008C00B9007901EA00C800DC006E616E00A6
:1010C000696E66006F766600444854313120487579
:1010D0006D696469747920262074656D706572612C
:1010E000747572652053656E736F720A0A000D0A7B
:1010F0000043757272656E742068756D69646974F9
:1011000079203D20002520200A0074656D706572ED
:0E1110006174757265203D2000632020000090
:107E0000112484B714BE81FFF0D085E080938100F7
:107E100082E08093C00088E18093C10086E0809377
:107E2000C20080E18093C4008EE0C9D0259A86E02C
:107E300020E33CEF91E0309385002093840096BBD3
:107E4000B09BFECF1D9AA8958150A9F7CC24DD24C4
:107E500088248394B5E0AB2EA1E19A2EF3E0BF2EE7
:107E6000A2D0813461F49FD0082FAFD0023811F036
:107E7000013811F484E001C083E08DD089C08234E0
:107E800011F484E103C0853419F485E0A6D080C0E4
:107E9000853579F488D0E82EFF2485D0082F10E0AE
:107EA000102F00270E291F29000F111F8ED06801E7
:107EB0006FC0863521F484E090D080E0DECF843638
:107EC00009F040C070D06FD0082F6DD080E0C81688
:107ED00080E7D80618F4F601B7BEE895C0E0D1E017
:107EE00062D089930C17E1F7F0E0CF16F0E7DF06D8
:107EF00018F0F601B7BEE89568D007B600FCFDCFD4
:107F0000A601A0E0B1E02C9130E011968C91119780
:107F100090E0982F8827822B932B1296FA010C0160
:107F200087BEE89511244E5F5F4FF1E0A038BF0790
:107F300051F7F601A7BEE89507B600FCFDCF97BE46
:107F4000E89526C08437B1F42ED02DD0F82E2BD052
:107F50003CD0F601EF2C8F010F5F1F4F84911BD097
:107F6000EA94F801C1F70894C11CD11CFA94CF0C13
:107F7000D11C0EC0853739F428D08EE10CD085E9AC
:107F80000AD08FE07ACF813511F488E018D01DD067
:107F900080E101D065CF982F8091C00085FFFCCF94
:107FA0009093C60008958091C00087FFFCCF809118
:107FB000C00084FD01C0A8958091C6000895E0E648
:107FC000F0E098E1908380830895EDDF803219F02E
:107FD00088E0F5DFFFCF84E1DECF1F93182FE3DFCA
:107FE0001150E9F7F2DF1F91089580E0E8DFEE27F6
:047FF000FF270994CA
:027FFE00040479
:00000001FF
