:100000000C945D000C9485000C9485000C94850084
:100010000C9485000C9485000C9485000C9485004C
:100020000C9485000C9485000C9485000C94A70218
:100030000C9485000C9485000C9485000C9485002C
:100040000C945D020C9485000C942B020C94050218
:100050000C9485000C9485000C9485000C9485000C
:100060000C9485000C94850000000008000201003B
:100070000003040700000000000000000000000072
:10008000250028002B0000000000240027002A0083
:10009000040404040404040402020202020203032E
:1000A0000303030301020408102040800102040836
:1000B0001020010204081020630311241FBECFEF9B
:1000C000D8E0DEBFCDBF11E0A0E0B1E0E4E0FCE0AD
:1000D00002C005900D92A032B107D9F721E0A0E24D
:1000E000B1E001C01D92AF3EB207E1F710E0CDE5EF
:1000F000D0E004C02197FE010E94FA05CC35D1075B
:10010000C9F70E94C0030C9400060C940000AF9243
:10011000BF92CF92DF92EF92FF920F931F93CF93F4
:10012000DF936C017B018B01040F151FEB015E0156
:10013000AE18BF08C017D10759F06991D601ED91EB
:10014000FC910190F081E02DC6010995892B79F78A
:10015000C501DF91CF911F910F91FF90EF90DF903C
:10016000CF90BF90AF900895FC01538D448D252F03
:1001700030E0842F90E0821B930B541710F0CF9641
:10018000089501970895FC01918D828D981761F073
:10019000A28DAE0FBF2FB11D5D968C91928D9F5F8A
:1001A0009F73928F90E008958FEF9FEF0895FC0169
:1001B000918D828D981731F0828DE80FF11D858D1C
:1001C00090E008958FEF9FEF0895FC01918D228DAF
:1001D000892F90E0805C9F4F821B91098F73992734
:1001E00008958AE291E00E94E50021E0892B09F45C
:1001F00020E0822F089580E090E0892B29F00E9472
:10020000F10081110C9400000895FC01A48DA80F49
:10021000B92FB11DA35ABF4F2C91848D90E0019648
:100220008F739927848FA689B7892C93A089B18968
:100230008C91837080648C93938D848D981306C009
:100240000288F389E02D80818F7D80830895EF926D
:10025000FF920F931F93CF93DF93EC0181E0888F80
:100260009B8D8C8D98131AC0E889F989808185FF50
:1002700015C09FB7F894EE89FF896083E889F989F2
:1002800080818370806480839FBF81E090E0DF91F4
:10029000CF911F910F91FF90EF900895F62E0B8D47
:1002A00010E00F5F1F4F0F731127E02E8C8D8E1102
:1002B0000CC00FB607FCFACFE889F989808185FF69
:1002C000F5CFCE010E940501F1CFEB8DEC0FFD2F94
:1002D000F11DE35AFF4FF0829FB7F8940B8FEA8924
:1002E000FB8980818062CFCFCF93DF93EC01888D33
:1002F0008823B9F0AA89BB89E889F9898C9185FDA1
:1003000003C0808186FD0DC00FB607FCF7CF8C912E
:1003100085FFF2CF808185FFEDCFCE010E940501E0
:10032000E9CFDF91CF91089590E0FC01E859FF4FAC
:100330002491FC01EC55FF4F3491FC01E057FF4F35
:10034000E491EE23C9F0222339F0233001F1A8F41F
:10035000213019F1223029F1F0E0EE0FFF1FE458AF
:10036000FF4FA591B4918FB7F894EC91611126C01D
:1003700030953E233C938FBF08952730A9F0283055
:10038000C9F0243049F7809180008F7D03C08091AF
:1003900080008F7780938000DFCF84B58F7784BD16
:1003A000DBCF84B58F7DFBCF8091B0008F778093BA
:1003B000B000D2CF8091B0008F7DF9CF3E2BDACF45
:1003C0003FB7F8948091260190912701A0912801D0
:1003D000B091290126B5A89B05C02F3F19F00196C1
:1003E000A11DB11D3FBFBA2FA92F982F8827BC018F
:1003F000CD01620F711D811D911D42E0660F771FB7
:10040000881F991F4A95D1F708951F920F920FB632
:100410000F9211242F933F934F935F936F937F938A
:100420008F939F93AF93BF93EF93FF938AE291E0F3
:100430000E940501FF91EF91BF91AF919F918F9124
:100440007F916F915F914F913F912F910F900FBED0
:100450000F901F9018951F920F920FB60F921124B4
:100460002F938F939F93EF93FF93E0913A01F09135
:100470003B018081E0914001F091410182FD1BC070
:100480009081809143018F5F8F7320914401821787
:1004900041F0E0914301F0E0E65DFE4F958F8093DF
:1004A0004301FF91EF919F918F912F910F900FBE7C
:1004B0000F901F9018958081F4CF1F920F920FB666
:1004C0000F9211242F933F938F939F93AF93BF93DA
:1004D0008091220190912301A0912401B0912501E6
:1004E0003091210123E0230F2D3758F50196A11DEE
:1004F000B11D209321018093220190932301A093A9
:100500002401B09325018091260190912701A091AB
:100510002801B09129010196A11DB11D80932601EA
:1005200090932701A0932801B0932901BF91AF9127
:100530009F918F913F912F910F900FBE0F901F9021
:10054000189526E8230F0296A11DB11DD2CF1F9248
:100550000F920FB60F9211242F933F934F935F93F7
:100560006F937F938F939F93AF93BF93CF93DF93BB
:10057000EF93FF9380912001C091EB01D0E087FFC2
:1005800024C01092850010928400809120018F5F1A
:100590008093200180912001082E000C990B8C176C
:1005A0009D0724F4809120018C30C4F18091840057
:1005B00090918500049680349C4908F47AC080911B
:1005C000840090918500049676C080912001082EC9
:1005D000000C990B8C179D07C4F6E09120018E2F1B
:1005E000EE0F990BFC01EE0FFF1FE80FF91FE95307
:1005F000FE4F808186FFC9CFE09120018E2FEE0F44
:10060000990BFC01EE0FFF1FE80FF91FE953FE4F96
:10061000808160E08F730E949401B7CF20918400A5
:1006200030918500E09120018E2FEE0F990BFC0197
:10063000EE0FFF1FE80FF91FE953FE4F81819281F2
:10064000820F931F9093890080938800E09120018E
:100650008E2FEE0F990BFC01EE0FFF1FE80FF91F15
:10066000E953FE4F808186FF11C0E09120018E2F5B
:10067000EE0F990BFC01EE0FFF1FE80FF91FE95376
:10068000FE4F808161E08F730E949401FF91EF9192
:10069000DF91CF91BF91AF919F918F917F916F919A
:1006A0005F914F913F912F910F900FBE0F901F9030
:1006B000189580E49CE990938900809388008FEFDF
:1006C00080932001E3CF10922D0110922C0188EE2F
:1006D00093E0A0E0B0E080932E0190932F01A093CF
:1006E0003001B093310184E091E090932B0180932D
:1006F0002A0185EC90E0909337018093360184ECD9
:1007000090E0909339018093380180EC90E09093D1
:100710003B0180933A0181EC90E090933D018093FE
:100720003C0182EC90E090933F0180933E0186EC87
:1007300090E0909341018093400110924301109208
:10074000440110924501109246018091EB018C30DA
:1007500098F491E0980F9093EB018093EC0190E076
:10076000FC01EE0FFF1FE80FF91FE953FE4F88EB66
:100770009BE09283818308958FEF8093EC0108952D
:10078000789484B5826084BD84B5816084BD85B56C
:10079000826085BD85B5816085BD80916E00816078
:1007A00080936E001092810080918100826080931E
:1007B0008100809181008160809381008091800020
:1007C0008160809380008091B10084608093B1004B
:1007D0008091B00081608093B00080917A00846045
:1007E00080937A0080917A00826080937A00809171
:1007F0007A00816080937A0080917A00806880938B
:100800007A001092C100E0913A01F0913B0182E040
:100810008083E0913601F09137011082E091380138
:10082000F09139018FEC808310924201E0913E01FA
:10083000F0913F0186E08083E0913C01F0913D0121
:10084000808180618083E0913C01F0913D01808155
:1008500088608083E0913C01F0913D018081806857
:100860008083E0913C01F0913D0180818F7D808308
:100870008091EC018C3008F068C0E7EAF0E0249148
:10088000E3E9F0E08491882399F090E0880F991FC4
:10089000FC01EA57FF4FA591B491FC01E458FF4FCA
:1008A000859194918FB7F894EC91E22BEC938FBFE4
:1008B0008091EC01282F30E0F901EE0FFF1FE20FCD
:1008C000F31FE953FE4F9081907C936090831092C8
:1008D000ED011092EE012CE0622F0E94E705829F4D
:1008E000B001112430E020E0AB01420F531FFA01A8
:1008F000EE0FFF1FE40FF51FE953FE4F908196FDA9
:1009000016C02F5F3F4F2C30310571F781110FC09A
:100910001092800082E080938100109285001092F6
:100920008400B19A80916F00826080936F00E091A3
:10093000EC018E2F90E0FC01EE0FFF1FE80FF91F76
:10094000E953FE4F808180648083C8E82C2E312CCF
:1009500008E512E0D4EB4D2E512C612C712CC0E037
:10096000D0E020E420937C0080917A008064809322
:100970007A0080917A0086FDFCCF80917800A0916A
:100980007900BA2FA82F24EB30E00E94F3052FEF57
:1009900033E040E050E00E9484056901490140E2F3
:1009A000C41642E0D406B4F58091ED014101881AE5
:1009B000910887FD9394880C991C880C991C092C2C
:1009C000000CAA08BB088091EE019801281B310990
:1009D00087FD3395220F331F220F331F032E000C88
:1009E000440B550B281939094A095B09D601A53B67
:1009F000B10514F0A4EBB0E0B7FF02C0B0E0A0E096
:100A00000E94AE05A30192010E948405820E931EEE
:100A1000A41EB51E2091EC012C3080F58091ED01D3
:100A2000A101481B510987FD5395CA01880F991FE1
:100A3000880F991F8816990684F08091EE01A8010D
:100A4000481B510987FD5395CA01880F991F880FCC
:100A5000991F881699060CF4C4010297880F991FF4
:100A60006FB7F89430E0A901440F551F240F351FCC
:100A7000F901E953FE4F928381836FBFB6016E5E29
:100A80007E4FFB0101900020E9F73197AF01461B33
:100A9000570B8AE291E00E94870042E050E06CE14F
:100AA00071E08AE291E00E9487000E94E0014B0120
:100AB0005C0184E6C82ED12CE12CF12C0E94E001CF
:100AC000681979098A099B09683E73408105910577
:100AD000A8F351E0C51AD108E108F10888EE880EA4
:100AE00083E0981EA11CB11CC114D104E104F104DF
:100AF00029F7209709F435CF0E94F100882309F4E3
:100B000030CF0E9400002DCF052E97FB1EF40094DD
:100B10000E949B0557FD07D00E94B60507FC03D035
:100B20004EF40C949B0550954095309521953F4F80
:100B30004F4F5F4F089590958095709561957F4FC9
:100B40008F4F9F4F08950E94D805A59F900DB49F89
:100B5000900DA49F800D911D11240895B7FF0C9452
:100B6000A3050E94A305821B930B0895A1E21A2EF0
:100B7000AA1BBB1BFD010DC0AA1FBB1FEE1FFF1F41
:100B8000A217B307E407F50720F0A21BB30BE40B91
:100B9000F50B661F771F881F991F1A9469F76095D8
:100BA0007095809590959B01AC01BD01CF01089592
:100BB000A29FB001B39FC001A39F700D811D11249E
:100BC000911DB29F700D811D1124911D0895991BD7
:100BD00079E004C0991F961708F0961B881F7A9534
:100BE000C9F7809508950E94D805B7FF0895821B24
:100BF000930B0895EE0FFF1F0590F491E02D0994DB
:040C0000F894FFCF96
:100C04000000000027018700B4007401E500C30060
:100C1400D700536572766F2061743A000D0A0000A4
:00000001FF
