:020000040000FA
:100000000C945D000C9485000C9485000C94850084
:100010000C9485000C9485000C9485000C9485004C
:100020000C9485000C9485000C9485000C9485003C
:100030000C9485000C9485000C9485000C9485002C
:100040000C949D030C9485000C946B030C94450355
:100050000C9485000C9485000C9485000C9485000C
:100060000C9485000C94850000000008000201003B
:100070000003040700000000000000000000000072
:10008000250028002B0000000000240027002A0083
:10009000040404040404040402020202020203032E
:1000A0000303030301020408102040800102040836
:1000B0001020010204081020610511241FBECFEF9B
:1000C000D8E0DEBFCDBF11E0A0E0B1E0E6E9F0E1AD
:1000D00002C005900D92A233B107D9F721E0A2E347
:1000E000B1E001C01D92A03EB207E1F710E0CDE5FE
:1000F000D0E004C02197FE010E945106CC35D10703
:10010000C9F70E94E7030C9449080C940000EFEA39
:10011000F0E02491EBE9F0E08491882399F090E0FD
:10012000880F991FFC01EA57FF4FA591B491FC017C
:10013000E458FF4F859194918FB7F894EC91E22B9E
:10014000EC938FBF0895E3E7F0E02491EFEAF0E04D
:100150009491EBE9F0E0E491EE23C9F0222339F029
:10016000233001F1A8F4213019F1223029F1F0E017
:10017000EE0FFF1FE458FF4FA591B4912FB7F894ED
:10018000EC91811126C090959E239C932FBF0895DA
:100190002730A9F02830C9F0243049F72091800099
:1001A0002F7D03C0209180002F7720938000DFCF28
:1001B00024B52F7724BDDBCF24B52F7DFBCF209135
:1001C000B0002F772093B000D2CF2091B0002F7DC8
:1001D000F9CF9E2BDACFAF92BF92CF92DF92EF9200
:1001E000FF920F931F93CF93DF936C017B018B01E1
:1001F000040F151FEB015E01AE18BF08C017D10731
:1002000059F06991D601ED91FC910190F081E02DBA
:10021000C6010995892B79F7C501DF91CF911F910F
:100220000F91FF90EF90DF90CF90BF90AF90089527
:10023000CF93DF93FC0144815581608171818FE30D
:1002400091E00E94EB00EC0142E050E068E171E0D7
:100250008FE391E00E94EB008C0F9D1FDF91CF9107
:100260000895FC01538D448D252F30E0842F90E0BC
:10027000821B930B541710F0CF96089501970895A1
:10028000FC01918D828D981761F0A28DAE0FBF2F6A
:10029000B11D5D968C91928D9F5F9F73928F90E0C0
:1002A00008958FEF9FEF0895FC01918D828D98172F
:1002B00031F0828DE80FF11D858D90E008958FEF6C
:1002C0009FEF0895FC01918D228D892F90E0805C35
:1002D0009F4F821B91098F73992708958FE391E0B7
:1002E0000E94620121E0892B09F420E0822F089509
:1002F00080E090E0892B29F00E946E0181110C941E
:1003000000000895FC01A48DA80FB92FB11DA35AB8
:10031000BF4F2C91848D90E001968F739927848F25
:10032000A689B7892C93A089B1898C918370806448
:100330008C93938D848D981306C00288F389E02DE9
:1003400080818F7D80830895EF92FF920F931F939A
:10035000CF93DF93EC0181E0888F9B8D8C8D981378
:100360001AC0E889F989808185FF15C09FB7F89484
:10037000EE89FF896083E889F989808183708064D0
:1003800080839FBF81E090E0DF91CF911F910F911B
:10039000FF90EF900895F62E0B8D10E00F5F1F4F2A
:1003A0000F731127E02E8C8D8E110CC00FB607FC39
:1003B000FACFE889F989808185FFF5CFCE010E94C7
:1003C0008201F1CFEB8DEC0FFD2FF11DE35AFF4FB2
:1003D000F0829FB7F8940B8FEA89FB898081806255
:1003E000CFCFCF93DF93EC01888D8823B9F0AA8912
:1003F000BB89E889F9898C9185FD03C0808186FDE0
:100400000DC00FB607FCF7CF8C9185FFF2CF80812E
:1004100085FFEDCFCE010E948201E9CFDF91CF9120
:1004200008958E3008F08E508770806480937C0031
:1004300080917A00806480937A0080917A0086FDB2
:10044000FCCF809178009091790008953FB7F8949F
:100450008091370190913801A0913901B0913A0112
:1004600026B5A89B05C02F3F19F00196A11DB11D0F
:100470003FBFBA2FA92F982F8827BC01CD01620F4B
:10048000711D811D911D42E0660F771F881F991F06
:100490004A95D1F708958F929F92AF92BF92CF92D3
:1004A000DF92EF92FF926B017C010E9426024B01CA
:1004B0005C01C114D104E104F104B9F00E942602E8
:1004C000681979098A099B09683E7340810591057D
:1004D00080F321E0C21AD108E108F10888EE880E05
:1004E00083E0981EA11CB11CE4CFFF90EF90DF9039
:1004F000CF90BF90AF909F908F9008950F931F93D0
:10050000CF93DF93EC0188819981009759F02A817C
:100510003B812617370730F081E0DF91CF911F91A3
:100520000F9108958B016F5F7F4F0E947C070097AA
:1005300059F0998388831B830A832C813D81232B67
:1005400059F7FC011082E8CF80E0E7CFEF92FF92ED
:100550000F931F93CF93DF936115710541F480E0F2
:10056000DF91CF911F910F91FF90EF90089541156A
:100570005105B1F07B01EC010C811D81040F151FA9
:10058000B8010E947E02882351F3288139818C8131
:100590009D81B701820F931F0E9442081D830C8327
:1005A00081E0DECFCF93DF93EC01888199810097C2
:1005B00011F00E94F306198218821D821C821B8290
:1005C0001A82DF91CF910895EF92FF920F931F93BC
:1005D000CF93DF93EC017B018A01BA010E947E0276
:1005E00081110BC0CE010E94D202CE01DF91CF91CA
:1005F0001F910F91FF90EF9008951D830C83B70119
:10060000888199810E944208F0CFEF92FF920F9368
:100610001F93CF93DF93CDB7DEB762970FB6F894F1
:10062000DEBF0FBECDBF8C01CB01F801118210825D
:1006300013821282158214824AE09E012F5F3F4F7F
:100640007901B9010E948E05F70101900020E9F7B8
:100650003197AF014E195F09B701C8010E94E4024A
:1006600062960FB6F894DEBF0FBECDBFDF91CF917B
:100670001F910F91FF90EF900895FC01808191816F
:10068000009711F00C94F30608951F920F920FB685
:100690000F9211242F933F934F935F936F937F9308
:1006A0008F939F93AF93BF93EF93FF938FE391E06B
:1006B0000E948201FF91EF91BF91AF919F918F9125
:1006C0007F916F915F914F913F912F910F900FBE4E
:1006D0000F901F9018951F920F920FB60F92112432
:1006E0002F938F939F93EF93FF93E0914F01F0919E
:1006F00050018081E0915501F091560182FD1BC0AF
:100700009081809158018F5F8F73209159018217DA
:1007100041F0E0915801F0E0E15CFE4F958F80934D
:100720005801FF91EF919F918F912F910F900FBEE4
:100730000F901F9018958081F4CF1F920F920FB6E3
:100740000F9211242F933F938F939F93AF93BF9357
:100750008091330190913401A0913501B09136011F
:100760003091320123E0230F2D3758F50196A11D5A
:10077000B11D209332018093330190933401A093F3
:100780003501B09336018091370190913801A091E5
:100790003901B0913A010196A11DB11D8093370135
:1007A00090933801A0933901B0933A01BF91AF9172
:1007B0009F918F913F912F910F900FBE0F901F909F
:1007C000189526E8230F0296A11DB11DD2CFCF9315
:1007D000DF93CDB7DEB72C970FB6F894DEBF0FBE10
:1007E000CDBF789484B5826084BD84B5816084BDBA
:1007F00085B5826085BD85B5816085BD80916E00BF
:10080000816080936E0010928100809181008260EF
:10081000809381008091810081608093810080912C
:1008200080008160809380008091B100846080931B
:10083000B1008091B00081608093B00080917A0017
:10084000846080937A0080917A00826080937A003D
:1008500080917A00816080937A0080917A0080682C
:1008600080937A001092C100E0914F01F091500105
:1008700082E08083E0914B01F0914C011082E09185
:100880004D01F0914E018FEC808310925701E09161
:100890005301F091540186E08083E0915101F09181
:1008A0005201808180618083E0915101F091520179
:1008B000808188608083E0915101F09152018081B4
:1008C00080688083E0915101F091520180818F7D99
:1008D00080830E94870044244A9483E0582E612C30
:1008E000712C93E7C92E90E0D92E20E0E22E20E073
:1008F000F22E8FE00E9411028C0190933E018093B2
:100900003D0180E10E9411022FEF30E0DC010E94E6
:100910004A06A30192010E94C30530933C01209333
:100920003B01B801CE0101960E94050318861F8283
:100930001A8619861C861B8648E050E06BE171E040
:10094000CE0107960E94E4024D815E8169817A8121
:10095000CE0107960E94A602811104C0CE0107961F
:100960000E94D202CE0107960E941801CE0107967E
:100970000E943D03CE0101960E943D0360913B0120
:1009800070913C01CE0101960E94050318861F82DA
:100990001A8619861C861B864CE050E064E271E0E2
:1009A000CE0107960E94E4024D815E8169817A81C1
:1009B000CE0107960E94A602811104C0CE010796BF
:1009C0000E94D202CE0107960E941801CE0107961E
:1009D0000E943D03CE0101960E943D0300913B0120
:1009E00010913C010E9487000115110521F580E05E
:1009F0000E94A30080903D0190903E01092C000CC4
:100A0000AA08BB08C501B4010E944B020E948700DE
:100A100080E00E94A300C501B4010E944B02E114D2
:100A2000F10409F466CF0E946E01882309F461CFB6
:100A30000E9400005ECF0F3F110511F481E0D8CF76
:100A4000F6018491833019F140F48130B1F08230A5
:100A5000C9F00038110594F7CACF873011F18830FA
:100A600041F18430B1F780918000806280938000F2
:100A700010938B0000938A00BDCF84B5806884BD3D
:100A800007BDB8CF84B5806284BD08BDB3CF809167
:100A90008000806880938000109389000093880014
:100AA000A9CF8091B00080688093B0000093B3001C
:100AB000A1CF8091B00080628093B0000093B40019
:100AC00099CFEFE3F1E01382128288EE93E0A0E089
:100AD000B0E084839583A683B7838AE091E0918315
:100AE000808385EC90E09587848784EC90E09787FD
:100AF000868780EC90E0918B808B81EC90E0938BEB
:100B0000828B82EC90E0958B848B86EC90E0978BC7
:100B1000868B118E128E138E148E0895BB274A3049
:100B200031F4992322F4BDE2909581959F4F0C9466
:100B30009A05BB27FB015527AA27880F991FAA1FD3
:100B4000A41710F0A41B83955051B9F7A05DAA33E8
:100B500008F0A95DA193009779F7B111B1931192B3
:100B6000CB010C94B305DC01FC01672F7191772355
:100B7000E1F7329704C07C916D9370836291AE1758
:100B8000BF07C8F30895052E97FB1EF400940E943A
:100B9000DA0557FD07D00E94190607FC03D04EF472
:100BA0000C94DA0550954095309521953F4F4F4F65
:100BB0005F4F089590958095709561957F4F8F4F09
:100BC0009F4F08952F923F924F925F926F927F9224
:100BD0008F929F92AF92BF92CF92DF92EF92FF924D
:100BE0000F931F93CF93DF93CDB7DEB7CA1BDB0BF9
:100BF0000FB6F894DEBF0FBECDBF09942A8839889E
:100C000048885F846E847D848C849B84AA84B984A4
:100C1000C884DF80EE80FD800C811B81AA81B981B0
:100C2000CE0FD11D0FB6F894DEBF0FBECDBFED01C4
:100C30000895A1E21A2EAA1BBB1BFD010DC0AA1F1D
:100C4000BB1FEE1FFF1FA217B307E407F50720F035
:100C5000A21BB30BE40BF50B661F771F881F991FB0
:100C60001A9469F760957095809590959B01AC01F9
:100C7000BD01CF010895A29FB001B39FC001A39F02
:100C8000700D811D1124911DB29F700D811D1124C5
:100C9000911D08950E943B06B7FF0895821B930B98
:100CA0000895EE0FFF1F0590F491E02D09940F9326
:100CB0001F93CF93DF938230910510F482E090E090
:100CC000E091DE01F091DF0130E020E0B0E0A0E053
:100CD000309799F42115310509F44AC0281B390BC6
:100CE00024303105D8F58A819B816115710589F120
:100CF000FB0193838283FE0111C0408151810281F7
:100D0000138148175907E0F04817590799F41097CD
:100D100061F012960C93129713961C933296CF01A2
:100D2000DF91CF911F910F9108950093DE011093F1
:100D3000DF01F4CF2115310551F04217530738F088
:100D4000A901DB019A01BD01DF01F801C1CFEF016B
:100D5000F9CF9093DF018093DE01CDCFFE01E20F4A
:100D6000F31F819391932250310939832883D7CF80
:100D70002091DC013091DD01232B41F4209102010F
:100D8000309103013093DD012093DC0120910001BB
:100D9000309101012115310541F42DB73EB7409145
:100DA000040150910501241B350BE091DC01F09109
:100DB000DD01E217F307A0F42E1B3F0B28173907BC
:100DC00078F0AC014E5F5F4F2417350748F04E0FA7
:100DD0005F1F5093DD014093DC01819391939FCF7E
:100DE000F0E0E0E09CCFCF93DF930097E9F0FC01C7
:100DF000329713821282A091DE01B091DF01ED01E2
:100E000030E020E01097A1F420813181820F931F00
:100E10002091DC013091DD012817390709F061C00C
:100E2000F093DD01E093DC01DF91CF910895EA01B9
:100E3000CE17DF07E8F54A815B819E014115510518
:100E4000B1F7E901FB83EA8349915991C40FD51F9A
:100E5000EC17FD0761F4808191810296840F951F44
:100E6000E90199838883828193819B838A83F0E05F
:100E7000E0E012968D919C9113970097B9F52D9112
:100E80003C911197CD010296820F931F2091DC01B6
:100E90003091DD012817390739F6309751F5109256
:100EA000DF011092DE01B093DD01A093DC01BCCF25
:100EB000D383C28340815181840F951FC817D907FE
:100EC00061F44E5F5F4F88819981480F591F5183AC
:100ED00040838A819B81938382832115310509F0A8
:100EE000B0CFF093DF01E093DE019ECFFD01DC0186
:100EF000C0CF13821282D7CFB0E0A0E0E2E8F7E0E3
:100F00000C94E4058C01009751F4CB010E94570624
:100F10008C01C801CDB7DEB7E0E10C940006FC01FE
:100F2000E60FF71F9C0122503109E217F30708F47E
:100F30009DC0D901CD91DC911197C617D70798F0C4
:100F4000C530D10530F3CE0104978617970708F313
:100F5000C61BD70B2297C193D1936D937C93CF017E
:100F60000E94F306D6CF5B01AC1ABD0A4C018C0E71
:100F70009D1EA091DE01B091DF01512C412CF12C7E
:100F8000E12C109731F58091DC019091DD018815FD
:100F9000990509F05CC04616570608F058C08091C4
:100FA000000190910101009741F48DB79EB74091E7
:100FB000040150910501841B950BE817F90708F00F
:100FC00055C0F093DD01E093DC01F901718360838A
:100FD000A0CF8D919C91119712966C9012971396B9
:100FE0007C901397A815B90559F56C0142E0C40E21
:100FF000D11CCA14DB0420F1AC014A195B09DA01E7
:101000001296159780F06282738251834083D901D2
:101010006D937C93E114F10471F0D7011396FC9366
:10102000EE93129776CF22968C0F9D1FF901918334
:101030008083F301EFCFF093DF01E093DE0169CF0E
:101040004816590608F42C017D01D3019ACFCB0133
:101050000E9457067C01009749F0AE01B8010E943A
:101060003908C8010E94F306870153CF10E000E061
:1010700050CFFB01DC0102C001900D924150504065
:10108000D8F70895FB01DC0101900D920020E1F7F3
:101090000895F894FFCF0000E001800000000000F8
:1010A000A401EB003101F1016201400154010D0A7C
:1010B000000A44656C61793A20004272696768747D
:0810C0006E6573733A20000015
:107E0000112484B714BE81FFF0D085E080938100F7
:107E100082E08093C00088E18093C10086E0809377
:107E2000C20080E18093C4008EE0C9D0259A86E02C
:107E300020E33CEF91E0309385002093840096BBD3
:107E4000B09BFECF1D9AA8958150A9F7CC24DD24C4
:107E500088248394B5E0AB2EA1E19A2EF3E0BF2EE7
:107E6000A2D0813461F49FD0082FAFD0023811F036
:107E7000013811F484E001C083E08DD089C08234E0
:107E800011F484E103C0853419F485E0A6D080C0E4
:107E9000853579F488D0E82EFF2485D0082F10E0AE
:107EA000102F00270E291F29000F111F8ED06801E7
:107EB0006FC0863521F484E090D080E0DECF843638
:107EC00009F040C070D06FD0082F6DD080E0C81688
:107ED00080E7D80618F4F601B7BEE895C0E0D1E017
:107EE00062D089930C17E1F7F0E0CF16F0E7DF06D8
:107EF00018F0F601B7BEE89568D007B600FCFDCFD4
:107F0000A601A0E0B1E02C9130E011968C91119780
:107F100090E0982F8827822B932B1296FA010C0160
:107F200087BEE89511244E5F5F4FF1E0A038BF0790
:107F300051F7F601A7BEE89507B600FCFDCF97BE46
:107F4000E89526C08437B1F42ED02DD0F82E2BD052
:107F50003CD0F601EF2C8F010F5F1F4F84911BD097
:107F6000EA94F801C1F70894C11CD11CFA94CF0C13
:107F7000D11C0EC0853739F428D08EE10CD085E9AC
:107F80000AD08FE07ACF813511F488E018D01DD067
:107F900080E101D065CF982F8091C00085FFFCCF94
:107FA0009093C60008958091C00087FFFCCF809118
:107FB000C00084FD01C0A8958091C6000895E0E648
:107FC000F0E098E1908380830895EDDF803219F02E
:107FD00088E0F5DFFFCF84E1DECF1F93182FE3DFCA
:107FE0001150E9F7F2DF1F91089580E0E8DFEE27F6
:047FF000FF270994CA
:027FFE00040479
:00000001FF
