:100000000C9462000C948A000C948A000C948A0070
:100010000C948A000C948A000C948A000C948A0038
:100020000C948A000C948A000C948A000C948A0028
:100030000C948A000C948A000C948A000C948A0018
:100040000C94BD020C948A000C948B020C946502F3
:100050000C948A000C948A000C948A000C948A00F8
:100060000C948A000C948A000000000024002700F1
:100070002A000000000023002600290000000000E4
:10008000250028002B0004040404040404040202D4
:100090000202020203030303030301020408102007
:1000A0004080010204081020010204081020000012
:1000B0000008000201000003040700000000000027
:1000C0000000380511241FBECFEFD8E0DEBFCDBF42
:1000D00011E0A0E0B1E0E6E9FFE002C005900D927A
:1000E000A435B107D9F721E0A4E5B1E001C01D9224
:1000F000AE3FB207E1F710E0C2E6D0E004C02197BE
:10010000FE010E94C307C136D107C9F70E944C0304
:100110000C94C9070C940000EAEBF0E02491E6EAA5
:10012000F0E09491E2E9F0E0E491EE23C9F02223BB
:1001300039F0233001F1A8F4213019F1223029F1EE
:10014000F0E0EE0FFF1FE458FF4FA591B4912FB7D9
:10015000F894EC91811126C090959E239C932FBF1B
:1001600008952730A9F02830C9F0243049F72091AC
:1001700080002F7D03C0209180002F772093800086
:10018000DFCF24B52F7724BDDBCF24B52F7DFBCF68
:100190002091B0002F772093B000D2CF2091B000F3
:1001A0002F7DF9CF9E2BDACFAF92BF92CF92DF9205
:1001B000EF92FF920F931F93CF93DF936C017B011C
:1001C0008B01040F151FEB015E01AE18BF08C017AD
:1001D000D10759F06991D601ED91FC910190F08120
:1001E000E02DC6010995892B79F7C501DF91CF91E3
:1001F0001F910F91FF90EF90DF90CF90BF90AF9045
:100200000895FC01538D448D252F30E0842F90E01C
:10021000821B930B541710F0CF9608950197089501
:10022000FC01918D828D981761F0A28DAE0FBF2FCA
:10023000B11D5D968C91928D9F5F9F73928F90E020
:1002400008958FEF9FEF0895FC01918D828D98178F
:1002500031F0828DE80FF11D858D90E008958FEFCC
:100260009FEF0895FC01918D228D892F90E0805C95
:100270009F4F821B91098F739927089581E691E022
:100280000E94320121E0892B09F420E0822F089599
:1002900080E090E0892B29F00E943E0181110C94AE
:1002A00000000895FC01A48DA80FB92FB11DA35A19
:1002B000BF4F2C91848D90E001968F739927848F86
:1002C000A689B7892C93A089B1898C9183708064A9
:1002D0008C93938D848D981306C00288F389E02D4A
:1002E00080818F7D80830895EF92FF920F931F93FB
:1002F000CF93DF93EC0181E0888F9B8D8C8D9813D9
:100300001AC0E889F989808185FF15C09FB7F894E4
:10031000EE89FF896083E889F98980818370806430
:1003200080839FBF81E090E0DF91CF911F910F917B
:10033000FF90EF900895F62E0B8D10E00F5F1F4F8A
:100340000F731127E02E8C8D8E110CC00FB607FC99
:10035000FACFE889F989808185FFF5CFCE010E9427
:100360005201F1CFEB8DEC0FFD2FF11DE35AFF4F42
:10037000F0829FB7F8940B8FEA89FB8980818062B5
:10038000CFCFCF93DF93EC01888D8823B9F0AA8972
:10039000BB89E889F9898C9185FD03C0808186FD40
:1003A0000DC00FB607FCF7CF8C9185FFF2CF80818F
:1003B00085FFEDCFCE010E945201E9CFDF91CF91B1
:1003C00008953FB7F8948091590190915A01A091F6
:1003D0005B01B0915C0126B5A89B05C02F3F19F0C9
:1003E0000196A11DB11D3FBFBA2FA92F982F8827B5
:1003F000BC01CD01620F711D811D911D42E0660F90
:10040000771F881F991F4A95D1F70895FC01019025
:100410000020E9F73197AF01481B590BBC0181E679
:1004200091E00C94D4008F929F92AF92BF920F9361
:100430001F93CF93DF93CDB7DEB7A1970FB6F89494
:10044000DEBF0FBECDBF19A2423008F44AE08E01D4
:100450000F5D1F4F842E912CB12CA12CA50194016E
:100460000E94A107E62FB901CA01EA30F4F4E05D69
:10047000D801EE938D01232B242B252B79F790E0C7
:1004800080E0109719F0CD010E940602A1960FB6E8
:10049000F894DEBF0FBECDBFDF91CF911F910F91BA
:1004A000BF90AF909F908F900895E95CE1CFCF937C
:1004B000DF930E940602EC0182E191E00E940602B5
:1004C0008C0F9D1FDF91CF9108951F920F920FB651
:1004D0000F9211242F933F934F935F936F937F93CA
:1004E0008F939F93AF93BF93EF93FF9381E691E038
:1004F0000E945201FF91EF91BF91AF919F918F9117
:100500007F916F915F914F913F912F910F900FBE0F
:100510000F901F9018951F920F920FB60F921124F3
:100520002F938F939F93EF93FF93E0917101F0913D
:1005300072018081E0917701F091780182FD1BC00A
:10054000908180917A018F5F8F7320917B01821758
:1005500041F0E0917A01F0E0EF59FE4F958F8093E2
:100560007A01FF91EF919F918F912F910F900FBE84
:100570000F901F9018958081F4CF1F920F920FB6A5
:100580000F9211242F933F938F939F93AF93BF9319
:100590008091550190915601A0915701B091580159
:1005A0003091540123E0230F2D3758F50196A11DFA
:1005B000B11D209354018093550190935601A0934F
:1005C0005701B09358018091590190915A01A0911F
:1005D0005B01B0915C010196A11DB11D8093590191
:1005E00090935A01A0935B01B0935C01BF91AF91CE
:1005F0009F918F913F912F910F900FBE0F901F9061
:10060000189526E8230F0296A11DB11DD2CFCF92D7
:10061000DF92EF92FF920F931F93E82FF92F05C0FF
:10062000015011092109310961F190819623941734
:10063000B9F305C0015011092109310911F1908167
:1006400096239413F7CFC12CD12CE12CF12C0AC0A6
:100650008FEFC81AD80AE80AF80A0C151D052E05EE
:100660003F0579F080818623841791F36C2D7D2DD1
:100670008E2D9F2D1F910F91FF90EF90DF90CF90C7
:10068000089560E070E080E090E01F910F91FF908E
:10069000EF90DF90CF900895789484B5826084BD08
:1006A00084B5816084BD85B5826085BD85B5816076
:1006B00085BD80916E00816080936E0010928100F4
:1006C00080918100826080938100809181008160AF
:1006D0008093810080918000816080938000809170
:1006E000B10084608093B1008091B00081608093FC
:1006F000B00080917A00846080937A0080917A00C3
:10070000826080937A0080917A00816080937A0081
:1007100080917A00806880937A001092C100E09105
:100720007101F091720182E08083E0916D01F0919E
:100730006E011082E0916F01F09170018FEC808367
:1007400010927901E0917501F091760186E0808345
:10075000E0917301F0917401808180618083E09168
:100760007301F0917401808188608083E09173014E
:10077000F0917401808180688083E0917301F09131
:10078000740180818F7D8083E6EAF0E02491E2E9C4
:10079000F0E08491882399F090E0880F991FFC0184
:1007A000E859FF4FA591B491FC01E458FF4F8591A2
:1007B00094918FB7F894EC91E22BEC938FBFE5EA1C
:1007C000F0E0249151E9252E50E0352EF10184917D
:1007D0008823C1F090E0880F991FFC01E859FF4F72
:1007E000A591B491FC01E458FF4FC591D4913FB756
:1007F000F8949C91822F809598239C9398818923CB
:1008000088833FBF85E191E00E945702C3E0D0E0BA
:1008100023E2A22EB12C30E0832E30E0932E80E034
:100820000E948C00CE010197F1F781E00E948C00BC
:10083000C5010197F1F780E00E948C00CE0101977D
:10084000F1F7E5EAF0E06491F1018491E82FF0E03E
:10085000EE0FFF1FEE58FF4F8591949100E412E4D4
:100860002FE030E0462F0E940703611571058105D6
:10087000910529F06F5F7F4F8F4F9F4F9F700E94B0
:10088000780620E030E04AEA53E40E942F0720E097
:1008900030E44CE956E40E94D70560935D01709303
:1008A0005E0180935F01909360018BE391E00E9471
:1008B0005702C0905D01D0905E01E0905F01F09022
:1008C0006001A7019601C701B6010E949C07882319
:1008D000E9F185E491E00E94060282E191E00E9444
:1008E000060281E591E00E9457020E94E1012B017E
:1008F0003C0188EEC82E83E0D82EE12CF12C0E941A
:10090000E1016419750986099709683E73408105FC
:100910009105A8F3F1E0CF1AD108E108F10828EE1B
:10092000420E23E0521E611C711CC114D104E1046B
:10093000F10429F78114910409F471CF0E943E015A
:10094000882309F46CCF0E94000069CF260137018B
:10095000E89477F82FEF3FEF4FE75FE7C301B2016D
:100960000E949C0781110DC02FEF3FEF4FE75FE71B
:10097000C301B2010E94D20518161CF489E491E06B
:10098000AACF2FEF3FEF4FE75FE4C701B6010E9408
:100990002A0718161CF48DE491E09DCF2FEF3FEF4E
:1009A0004FE75FECC701B6010E94D20587FDF3CF88
:1009B00020E030E0A901C701B6010E94D20587FFFF
:1009C00009C06DE281E691E00E947401F7FAF094AB
:1009D000F7F8F0942AE037ED43EA5BE3C701B6018C
:1009E0000E9466052B013C010E9449066B017C01B7
:1009F0000E9478069B01AC01C301B2010E9465050B
:100A00002B013C014AE0C701B6010E9413026EE2CD
:100A100081E691E00E94740120E030E040E251E480
:100A2000C301B2010E942F072B013C010E9449061D
:100A30006B01F12CE12C4AE0C701B6010E941302C0
:100A4000C701B6010E9478069B01AC01C301B20147
:100A50000E94650520E030E040E251E40E942F074B
:100A60000E94490690E080E04AE00E94130235CFE0
:100A7000E1E6F1E01382128288EE93E0A0E0B0E0BC
:100A800084839583A683B78384E091E091838083F8
:100A900085EC90E09587848784EC90E09787868743
:100AA00080EC90E0918B808B81EC90E0938B828B3B
:100AB00082EC90E0958B848B86EC90E0978B868B14
:100AC000118E128E138E148E08955058BB27AA27AC
:100AD0000E947D050C94F0060E94E20638F00E9408
:100AE000E90620F039F49F3F19F426F40C94DF0650
:100AF0000EF4E095E7FB0C94D906E92F0E9401075C
:100B000058F3BA17620773078407950720F079F442
:100B1000A6F50C9423070EF4E0950B2EBA2FA02D0A
:100B20000B01B90190010C01CA01A0011124FF279A
:100B3000591B99F0593F50F4503E68F11A16F04095
:100B4000A22F232F342F4427585FF3CF4695379594
:100B50002795A795F0405395C9F77EF41F16BA0B59
:100B6000620B730B840BBAF09150A1F0FF0FBB1F07
:100B7000661F771F881FC2F70EC0BA0F621F731F50
:100B8000841F48F4879577956795B795F7959E3FAD
:100B900008F0B0CF9395880F08F09927EE0F97953E
:100BA000879508950E94B50608F481E008950E9493
:100BB000EB050C94F0060E94E90658F00E94E2064C
:100BC00040F029F45F3F29F00C94D90651110C94A0
:100BD00024070C94DF060E94010768F39923B1F300
:100BE000552391F3951B550BBB27AA276217730753
:100BF000840738F09F5F5F4F220F331F441FAA1FE7
:100C0000A9F335D00E2E3AF0E0E832D091505040A2
:100C1000E695001CCAF72BD0FE2F29D0660F771F50
:100C2000881FBB1F261737074807AB07B0E809F036
:100C3000BB0B802DBF01FF2793585F4F3AF09E3FBB
:100C4000510578F00C94D9060C9424075F3FE4F327
:100C5000983ED4F3869577956795B795F7959F5FFE
:100C6000C9F7880F911D9695879597F90895E1E04A
:100C7000660F771F881FBB1F621773078407BA07A9
:100C800020F0621B730B840BBA0BEE1F88F7E09504
:100C900008950E94090788F09F5798F0B92F992767
:100CA000B751B0F0E1F0660F771F881F991F1AF057
:100CB000BA95C9F714C0B13091F00E942307B1E092
:100CC00008950C942307672F782F8827B85F39F091
:100CD000B93FCCF3869577956795B395D9F73EF4F0
:100CE00090958095709561957F4F8F4F9F4F089598
:100CF000E89409C097FB3EF49095809570956195B6
:100D00007F4F8F4F9F4F9923A9F0F92F96E9BB276B
:100D10009395F695879577956795B795F111F8CFE7
:100D2000FAF4BB0F11F460FF1BC06F5F7F4F8F4F52
:100D30009F4F16C0882311F096E911C0772321F048
:100D40009EE8872F762F05C0662371F096E8862FE0
:100D500070E060E02AF09A95660F771F881FDAF737
:100D6000880F9695879597F90895990F0008550F64
:100D7000AA0BE0E8FEEF16161706E807F907C0F021
:100D800012161306E407F50798F0621B730B840B29
:100D9000950B39F40A2661F0232B242B252B21F403
:100DA00008950A2609F4A140A6958FEF811D811DA3
:100DB000089597F99F6780E870E060E008959FEFDD
:100DC00080EC089500240A941616170618060906E2
:100DD000089500240A9412161306140605060895B1
:100DE000092E0394000C11F4882352F0BB0F40F439
:100DF000BF2B11F460FF04C06F5F7F4F8F4F9F4F79
:100E0000089557FD9058440F551F59F05F3F71F0FA
:100E10004795880F97FB991F61F09F3F79F0879561
:100E20000895121613061406551FF2CF4695F1DFEA
:100E300008C0161617061806991FF1CF869571057A
:100E4000610508940895E894BB2766277727CB01AE
:100E500097F908950E94B50608F48FEF08950E944F
:100E600042070C94F0060E94E20638F00E94E90660
:100E700020F0952311F00C94D9060C94DF06112470
:100E80000C9424070E94010770F3959FC1F3950FFE
:100E900050E0551F629FF001729FBB27F00DB11DFE
:100EA000639FAA27F00DB11DAA1F649F6627B00D8E
:100EB000A11D661F829F2227B00DA11D621F739F77
:100EC000B00DA11D621F839FA00D611D221F749F85
:100ED0003327A00D611D231F849F600D211D822FCC
:100EE000762F6A2F11249F5750409AF0F1F08823F3
:100EF0004AF0EE0FFF1FBB1F661F771F881F915020
:100F00005040A9F79E3F510580F00C94D9060C94EF
:100F100024075F3FE4F3983ED4F386957795679571
:100F2000B795F795E7959F5FC1F7FE2B880F911D49
:100F30009695879597F908950E94B506880B990BA9
:100F40000895A1E21A2EAA1BBB1BFD010DC0AA1F0A
:100F5000BB1FEE1FFF1FA217B307E407F50720F022
:100F6000A21BB30BE40BF50B661F771F881F991F9D
:100F70001A9469F760957095809590959B01AC01E6
:100F8000BD01CF010895EE0FFF1F0590F491E02DF4
:060F90000994F894FFCF64
:100F9600000000007401D4000101C10132011001FA
:100FA60024010D0A0044697374616E6365204D6502
:100FB600746572207769746820756C747261736FDA
:100FC6006E69632073656E736F7200446973746132
:100FD6006E63653A006E616E00696E66006F7666D6
:040FE60000636D0037
:00000001FF
